:100000000C946B000C9426010C9488000C948800CE
:100010000C94E8050C9488000C9488000C949A05C4
:100020000C94C1050C9488000C9473050C94880002
:100030000C94C7060C94A5030C94D2030C94DA0319
:100040000C9488000C9488000C9488000C94880010
:100050000C94880007634236B79BD8A71A396856B4
:1000600018AEBAAB558C1D3CB7CC5763BD6DEDFDDA
:10007000753EF6177231BF000000803F0800000097
:10008000BE922449123EABAAAA2ABECDCCCC4C3E8D
:1000900000000080BEABAAAAAA3E00000000BF007C
:1000A0000000803F0000000000084178D3BB438778
:1000B000D1133D190E3CC3BD4282AD2B3E68EC828C
:1000C00076BED98FE1A93E4C80EFFFBE01C4FF7F11
:1000D0003F000000000011241FBECFE5D8E0DEBFC6
:1000E000CDBF10E0A0E6B0E0EAEEF8E102C0059076
:1000F0000D92A437B107D9F721E0A4E7B0E001C021
:100100001D92A230B207E1F70E942C010C94730CEF
:100110000C940000CF92DF92EF92FF92CF93DF9387
:1001200000D000D0CDB7DEB780917E0090917F00E7
:10013000A0918000B091810089839A83AB83BC83B6
:1001400020E030E040E85FE3BC01CD010E94B7074A
:10015000462F572F682F792F40937E0050937F00B2
:1001600060938000709381008091600090916100A5
:10017000A0916200B091630089839A83AB83BC83B2
:10018000C0907600D0907700E0907800F0907900F1
:10019000BC01CD010E94000920E030E04AE754E4B0
:1001A00069837A838B839C8369817A818B819C812B
:1001B0000E942308A701960169837A838B839C831D
:1001C00069817A818B819C810E94B707462F572FC6
:1001D000682F792F409376005093770060937800D2
:1001E0007093790080917E0090917F00A0918000B3
:1001F000B091810089839A83AB83BC8320E030E097
:100200004AE754E4BC01CD010E942308462F572F32
:10021000682F792F40937A0050937B0060937C0085
:1002200070937D000F900F900F900F90DF91CF9102
:10023000FF90EF90DF90CF90089581E0809374005D
:10024000089580E690E00E94B30608958F9381E0C0
:10025000809375008F91189500D000D000D00F9238
:10026000CDB7DEB78FE690E00E94160681E291E0FE
:100270000E940F068BE690E00E9498044AE850E046
:1002800070E060E080E00E94E60484E690E00E9476
:1002900007048DE191E00E94710470E060E08AE162
:1002A00090E00E94150385B7826085BF8BB780649C
:1002B0008BBF00E118E082E08F8391E09E83A1E094
:1002C000AD83F12CE12C0F2EF4E12F2EF02D0F2E0B
:1002D000F1E13F2EF02D0F2EF5E04F2EF02D0F2ED9
:1002E000F6E05F2EF02D0F2EF7E06F2EF02D0F2E83
:1002F000F3E07F2EF02D60C14F825EC11CE05CC137
:1003000009E05AC1B130D1F0B73009F055C11B3006
:1003100009F4CFC008F08BC0183009F49CC01A3023
:1003200009F04AC180917400813009F045C18DE324
:100330000E948104109274001BE03EC1FF81F430E2
:1003400009F455C098F4F23031F1F33009F034C1BA
:10035000D0907400E1E0DE122FC18DE30E94810491
:1003600010927400DE82F4E0FF8326C18F81853015
:1003700009F450C0863009F01FC1809174008130AB
:1003800009F01AC18CE20E9481041092740082E08C
:100390008F836E8211C18090600090906100A09068
:1003A0006200B0906300282D392D4A2D5B2D60E04E
:1003B00070E080E090E00E94EE06E82EF92E9D812C
:1003C000913069F0D0907400B1E0DB12F5C086E5A1
:1003D0000E94810410927400DE827F82EDC086E567
:1003E0000E948104AD81AE837F821D82E5C0D7016A
:1003F0008C91882309F480CFD0907400B1E0DB1297
:10040000DBC00E94810410927400EFEFEE1AFE0A26
:10041000DE82D2C0D0907400F1E0DF12CDC080E265
:100420000E94810410927400DE825F82C5C01C307D
:1004300009F451C01D3009F0BFC0809174008130B3
:1004400009F0BAC08CE20E9481041092740018E096
:10045000EFE0EE83B1C08091760090917700A0919B
:100460007800B091790089839A83AB83BC83BC0107
:10047000CD010E94D10869837A838B839C834B01D1
:100480005C01262F392D482F5B2D60E070E080E065
:1004900090E00E94EE06E82EF92E809174008130E3
:1004A00009F08AC084E40E948104109274001AE06A
:1004B00083C0D7018C91882309F420CF90917400D8
:1004C000913009F079C00E948104BFEFEB1AFB0A5A
:1004D0001092740071C080917400813009F06CC07A
:1004E00080E20E948104109274001DE065C0013119
:1004F00009F447C098F5093009F44EC0003109F0FD
:100500005BC080917A0090917B00A0917C00B091BB
:100510007D0089839A83AB83BC83BC01CD010E949B
:10052000D10869837A838B839C834B015C01262FDE
:10053000392D482F5B2D60E070E080E090E00E9454
:10054000EE06E82EF92E809174008130A9F584E53D
:100550000E94810410927400032D2EC0023161F5B7
:10056000D7018C91882309F4CBCE909174009130FF
:1005700019F50E948104BFEFEB1AFB0A1092740078
:100580001BC0809174008130B9F48DE30E94810416
:100590001092740002E110C080917400813061F407
:1005A00080E20E9481041092740000E12E8204C057
:1005B00080917400813089F1809175008130E1F77C
:1005C000BE81BF3009F493CF08F49CCEEE81E431B4
:1005D00079F3E53189F7D0907400F1E0DF12ECCFC8
:1005E0008DE00E94810410927500109276001092A6
:1005F0007700109278001092790010927E0010928D
:100600007F00109280001092810010927400DE82B0
:1006100000E118E082E08F83CFCF8EE20E94810458
:1006200010927400E5E1EE83C7CF803208F08BC0F2
:10063000282F26952695269591E4920F87702230D3
:1006400009F445C0943408F060C09134A9F09234A4
:1006500089F461112FC047B321E030E0F90102C0F5
:10066000EE0FFF1F8A95E2F7CF018095842387BBA9
:10067000862F089581E0089561110FC04AB321E0EB
:1006800030E0F90102C0EE0FFF1F8A95E2F7CF01BB
:10069000809584238ABB862F08959AB321E030E0A9
:1006A00002C0220F331F8A95E2F7892F822B8ABB63
:1006B00080E0089597B321E030E002C0220F331F9D
:1006C0008A95E2F7892F822B87BB80E0089561111C
:1006D0000FC044B321E030E0F90102C0EE0FFF1F6C
:1006E0008A95E2F7CF018095842384BB862F0895F5
:1006F00094B321E030E002C0220F331F8A95E2F765
:10070000892F822B84BB80E0089561110FC041B313
:1007100021E030E0B90102C0660F771F8A95E2F749
:10072000CB018095842381BB81E0089591B321E0C2
:1007300030E002C0220F331F8A95E2F7892F822B07
:1007400081BB81E0089581E008951F920F920FB65A
:100750000F9211242F933F934F935F936F937F9347
:100760008F939F93AF93BF93EF93FF9380918600F6
:1007700090918700892B29F0E0918600F091870005
:100780000995FF91EF91BF91AF919F918F917F91CB
:100790006F915F914F913F912F910F900FBE0F90EE
:1007A0001F9018958F93569A559881E080938200F8
:1007B0008F9118951F920F920FB60F9211242F93BD
:1007C0003F934F935F936F937F938F939F93AF93D9
:1007D000BF93EF93FF938091880090918900892BBC
:1007E00029F0E0918800F09189000995FF91EF913F
:1007F000BF91AF919F918F917F916F915F914F9139
:100800003F912F910F900FBE0F901F901895E82FDA
:10081000F92F309709F463C010BC828189B98081B7
:100820008D3011F18FE08093830081818E3001F152
:1008300080E180938400838181111EC080B580BDDA
:100840008381843029F1833039F18581853039F114
:10085000863071F1873081F1883091F1893009F566
:1008600080B5866080BD1DC080938300539ADDCF24
:1008700080938400549ADFCF813031F0823001F7C9
:1008800080B5806380BDDCCF80B5806280BDD8CF6D
:1008900080B5886080BDD9CF80B580BDD6CF80B50A
:1008A00080BD86818A3081F08BE080938500089539
:1008B00080B5826080BDF5CF80B5846080BDF1CF0A
:1008C00080B5866080BDEDCF809385008FB780684E
:1008D0008FBF81818E3009F00895579A08958CE07A
:1008E0000895282F392F809185008A3009F00895C6
:1008F00021153105E1F33093890020938800559A42
:10090000F6CF909183009D3009F008959091850075
:100910009B3051F09A30C9F7909182009130A9F73D
:100920005D9BF3CF8CB9F1CF5D9BFECF8CB9089561
:10093000E82FF92F309709F43FC09081292F30E03C
:10094000D901AE56BF4F8C918130F1F09330B0F5A4
:1009500082818330A8F543814230A0F5518158301F
:1009600098F5D901AE56BF4F61E06C93D901AB56F3
:10097000BF4F8C9328563F4FD9014C93813029F0BB
:1009800083818130A1F080E00895913041F0923070
:1009900051F09111F9CF83B7582B53BFF1CF8EB5DA
:1009A000582B5EBDEDCF85B5582B55BDE9CF8FB720
:1009B00080688FBF80E0089580E0089581E0089509
:1009C00081E0089581E0089581E00895982F262F11
:1009D000372F642F752F811184C083B7886083BF40
:1009E00040919500413009F45FC041112DC083B79B
:1009F000826083BF80919800811114C02115310558
:100A000009F461C050E040E061E098B7926098BF9F
:100A10006CBF08B601FEFDCF4F5F5F4F241735074F
:100A2000A1F70895813011F0842F089588B782606E
:100A300088BF81E08CBF89B7826089BF70939100C5
:100A400060939000842F0895423011F0892F08950B
:100A500083B7836083BF80919800811113C02115F3
:100A6000310589F150E040E06DE798B7926098BF9A
:100A70006CBF08B601FEFDCF4F5F5F4F24173507EF
:100A8000A1F70895813011F0892F089588B7826009
:100A900088BF8DE78CBF89B7826089BF7093910052
:100AA00060939000892F089580919800811108C06B
:100AB00098B7926098BF2CBF08B601FEFDCF08958D
:100AC000813011F0892F089588B7826088BF2CBFCC
:100AD00089B7826089BF7093910060939000892FDD
:100AE000089581E008951F920F920FB60F9211247E
:100AF0002F933F934F935F936F937F938F939F9326
:100B0000AF93BF93EF93FF93E0919000F09191002A
:100B10000995FF91EF91BF91AF919F918F917F9137
:100B20006F915F914F913F912F910F900FBE0F905A
:100B30001F9018951F920F920FB60F9211242F93AA
:100B40003F934F935F936F937F938F939F93AF9355
:100B5000BF93EF93FF93E0918E00F0918F00099582
:100B6000FF91EF91BF91AF919F918F917F916F9185
:100B70005F914F913F912F910F900FBE0F901F905B
:100B800018951F920F920FB60F9211242F933F9337
:100B90004F935F936F937F938F939F93AF93BF9385
:100BA000EF93FF93E0918C00F0918D000995FF91F8
:100BB000EF91BF91AF919F918F917F916F915F91D5
:100BC0004F913F912F910F900FBE0F901F9018954E
:100BD0001F920F920FB60F9211242F933F934F93B2
:100BE0005F936F937F938F939F93AF93BF93EF9395
:100BF000FF93E0918A00F0918B000995FF91EF91AE
:100C0000BF91AF919F918F917F916F915F914F9124
:100C10003F912F910F900FBE0F901F901895282F86
:100C2000392F30939C0020939B000895CF93DF933E
:100C3000C82FD92F61E070E08CE090E00E9415038E
:100C400061E070E08DE090E00E94150370E060E0EC
:100C50008EE090E00E94150361E070E08FE090E08C
:100C60000E9415039881992331F081E0913089F138
:100C7000DF91CF9108956C9A8981813091F08C81B8
:100C8000811119C06D988B818130C9F08A818111E1
:100C900018C09FB790689FBF6F9A10929D006E9A80
:100CA000E7CF8DB1837F8DB98DB12981822B8DB92D
:100CB0006A986B98E4CF813031F76D9AE4CF709ADF
:100CC000E5CF813011F084E0EACF80939D00892F39
:100CD000E6CF70E060E08CE090E00E94150370E0E9
:100CE00060E08DE090E00E94150361E070E08EE02E
:100CF00090E00E94150370E060E08FE090E00E94B9
:100D000015036C988C81811115C06D986E9A8A813B
:100D1000882321F0813051F084E0AACF8FB780681A
:100D20008FBF6F9A10929D0086E0A2CF80939D00A6
:100D300086E09ECF813011F083E09ACF6D9A6E9A53
:100D40008A81882321F0813051F084E091CF8FB7E0
:100D500080688FBF6F9A10929D0086E089CF809344
:100D60009D0086E085CFE82FF92F80919D008111AD
:100D700004C08FB1808381E00895813031F48FB158
:100D80008083779BFECF80E0089581E008951F92D5
:100D90000F920FB60F9211242F933F934F935F93AF
:100DA0006F937F938F939F93AF93BF93EF93FF9333
:100DB000E0919B00F0919C000995FF91EF91BF910C
:100DC000AF919F918F917F916F915F914F913F91E3
:100DD0002F910F900FBE0F901F9018952F923F925A
:100DE0004F925F926F927F928F929F92AF92BF923B
:100DF000CF92DF92EF92FF920F931F93CF93DF93E7
:100E0000CDB7DEB728970FB6F894DEBF0FBECDBFC3
:100E10002D8338874E835F83562E472E382E292EFA
:100E2000612C862C6394882D90E0B0E0A0E089834B
:100E30009A83AB83BC83BC01CD010E940009262F9D
:100E4000372F482F592F60E070E080E291E40E9434
:100E50009E0969837A838B839C8369817A818B81E4
:100E60009C810E949508A22EB32EC42ED52EE62E6C
:100E7000F72E082F192F2D8138854E815F81652D22
:100E8000742D832D922D0E94920BA0E00E94670C7E
:100E900041F62D8138854E815F81652D742D832D1E
:100EA000922D0E94670C09F45FC01982A82DA150F1
:100EB000BB0B4D01C401B9818B1B9109FC01E256AA
:100EC000FF4F3F010F2EFAE0AF2EF02DB12CC12CB9
:100ED000D12CE12CF12C00E010E02D8138854E81E1
:100EE0005F81652D742D832D922D0E94900B205DC6
:100EF000D3012C932D8138854E815F81652D742D12
:100F0000832D922D0E94920B2D8338874E835F8311
:100F1000562E472E382E292EB981BF5FB983A0E007
:100F20000E94670C39F62981E22FF0E0E256FF4F6C
:100F300010828EE990E028960FB6F894DEBF0FBEBF
:100F4000CDBFDF91CF911F910F91FF90EF90DF9078
:100F5000CF90BF90AF909F908F907F906F905F9059
:100F60004F903F902F9008951982DDCF5058BB27A6
:100F7000AA270E94CE070C9464090E94560938F0F3
:100F80000E945D0920F039F49F3F19F426F40C9477
:100F900043090EF4E095E7FB0C943D09E92F0E940C
:100FA000750958F3BA17620773078407950720F08D
:100FB00079F4A6F50C9497090EF4E0950B2EBA2F50
:100FC000A02D0B01B90190010C01CA01A00111244F
:100FD000FF27591B99F0593F50F4503E68F11A16FB
:100FE000F040A22F232F342F4427585FF3CF46958C
:100FF00037952795A795F0405395C9F77EF41F16AE
:10100000BA0B620B730B840BBAF09150A1F0FF0F77
:10101000BB1F661F771F881FC2F70EC0BA0F621F63
:10102000731F841F48F4879577956795B795F79553
:101030009E3F08F0B0CF9395880F08F09927EE0FE8
:101040009795879508950E9437080C9464090E942B
:101050005D0958F00E94560940F029F45F3F29F0DD
:101060000C943D0951110C9498090C9443090E9469
:10107000750968F39923B1F3552391F3951B550B2B
:10108000BB27AA2762177307840738F09F5F5F4F5B
:10109000220F331F441FAA1FA9F335D00E2E3AF09A
:1010A000E0E832D091505040E695001CCAF72BD0B2
:1010B000FE2F29D0660F771F881FBB1F2617370703
:1010C0004807AB07B0E809F0BB0B802DBF01FF2735
:1010D00093585F4F3AF09E3F510578F00C943D09CC
:1010E0000C9498095F3FE4F3983ED4F38695779586
:1010F0006795B795F7959F5FC9F7880F911D9695EE
:10110000879597F90895E1E0660F771F881FBB1F49
:10111000621773078407BA0720F0621B730B840BF6
:10112000BA0BEE1F88F7E0950895BEE304D008F4EB
:1011300090E80895BFE322273327A9010E947D0983
:1011400060F19F5748F1B91740F1BFE3B91B9927E8
:10115000B8503AF4660F771F881F991FB395D2F3E2
:1011600016C0B8504AF0232F342F452F562F672F23
:10117000782F8827B850BAF7B85F49F086957795E9
:1011800067955795479537952795BA95B9F716F40A
:101190000E94460988940895889460E070E0CB012D
:1011A00008950E947D0988F09F5798F0B92F9927DC
:1011B000B751B0F0E1F0660F771F881F991F1AF042
:1011C000BA95C9F714C0B13091F00E949709B1E007
:1011D00008950C949709672F782F8827B85F39F006
:1011E000B93FCCF3869577956795B395D9F73EF4DB
:1011F00090958095709561957F4F8F4F9F4F089583
:10120000E89409C097FB3EF49095809570956195A0
:101210007F4F8F4F9F4F9923A9F0F92F96E9BB2756
:101220009395F695879577956795B795F111F8CFD2
:10123000FAF4BB0F11F460FF1BC06F5F7F4F8F4F3D
:101240009F4F16C0882311F096E911C0772321F033
:101250009EE8872F762F05C0662371F096E8862FCB
:1012600070E060E02AF09A95660F771F881FDAF722
:10127000880F9695879597F9089597F99F6780E865
:1012800070E060E008959FEF80EC08959095809560
:101290007095609550954095309521953F4F4F4FF3
:1012A0005F4F6F4F7F4F8F4F9F4F089500240A94D9
:1012B0001616170618060906089500240A94121631
:1012C0001306140605060895092E0394000C11F464
:1012D000882352F0BB0F40F4BF2B11F460FF04C011
:1012E0006F5F7F4F8F4F9F4F089557FD9058440F6A
:1012F000551F59F05F3F71F04795880F97FB991F75
:1013000061F09F3F79F08795089512161306140631
:10131000551FF2CF4695F1DF08C0161617061806BE
:10132000991FF1CF86957105610508940895E89499
:10133000BB2766277727CB0197F90895FA01EE0FAF
:10134000FF1F309621053105A1F16115710561F48A
:101350008038BFE39B0749F168949038810561F0BC
:101360008038BFEF9B0741F099234AF5FF3FE10525
:101370003105210519F1E8940894E795D901AA23CC
:1013800029F4AB2FBE2FF85FD0F310C0FF5F70F4CD
:10139000A695E0F7F73950F019F0FF3A38F49F7747
:1013A0009F930DD00F9007FC9058089546F00C9431
:1013B000430960E070E080E89FE308954FE79F777E
:1013C0005F934F933F932F930E94990A2F913F91E0
:1013D0004F915F910E94150B0C94F60929F416F0B9
:1013E0000C943D090C9497090C9443090E947D09C3
:1013F000A8F39638A0F707F80F92E8942BE33AEA9F
:1014000048EB5FE70E942B0B0F920F920F924DB7A4
:101410005EB70F920E94E10AE4E5F0E00E94280A1C
:101420004F915F91EF91FF91E595EE1FFF1F49F0FE
:10143000FE57E0684427EE0F441FFA95E1F7419507
:10144000550B0E945B0A0F9007FE0C944F0A0895FB
:10145000DF93CF931F930F93FF92EF92DF927B0165
:101460008C01689406C0DA2EEF010E94280BFE0161
:10147000E894A5912591359145915591A6F3EF01F9
:101480000E94CE07FE019701A801DA9469F7DF9068
:10149000EF90FF900F911F91CF91DF9108959B01E5
:1014A000AC0160E070E080E89FE30C9423080C94AA
:1014B0003D090C94820B0E947D09D8F39923C9F34E
:1014C000940F511DA3F39150504094F059F088238C
:1014D00032F0660F771F881F91505040C1F79E3F32
:1014E00051052CF7880F911D9695879597F90895CA
:1014F0005F3FACF0983E9CF0BB278695779567954B
:10150000B79508F4B1609395C1F7BB0F58F711F484
:1015100060FFE8CF6F5F7F4F8F4F9F4FE3CF0C94FB
:10152000980916F00C94820B0C94430968940C945F
:101530003D090E947D09A8F39923C1F3AEF3DF931F
:10154000CF931F930F93FF92C92FDD2788232AF093
:101550002197660F771F881FDAF720E030E040E818
:101560005FEB9FE3883920F0803E38F021968F773B
:101570000E94B707ECE7F0E004C00E94B707E9EA71
:10158000F0E00E94280A8B01BE01EC01FB2E6F5790
:1015900071097595771F880B990B0E94020928E144
:1015A00032E741E35FE30E94280BAF2D9801AE01C3
:1015B000FF900F911F91CF91DF910E94CE070C9465
:1015C0006409FA01DC01AA0FBB1F9B01AC01BF57E4
:1015D00028F4222733274427507820C0B75190F4AD
:1015E000AB2F0024469537952795011CA395D2F380
:1015F000002071F0220F331F441FB395DAF30ED091
:101600000C94B60761307105A0E88A07B94630F43A
:101610009B01AC016627772788279078309621F0C8
:10162000208331834283538308950E94280B0C94B6
:1016300064090E94560938F00E945D0920F0952344
:1016400011F00C943D090C94430911240C94980951
:101650000E94750970F3959FC1F3950F50E0551FD7
:10166000629FF001729FBB27F00DB11D639FAA27F7
:10167000F00DB11DAA1F649F6627B00DA11D661F46
:10168000829F2227B00DA11D621F739FB00DA11D67
:10169000621F839FA00D611D221F749F3327A00D21
:1016A000611D231F849F600D211D822F762F6A2FBD
:1016B00011249F5750409AF0F1F088234AF0EE0F22
:1016C000FF1FBB1F661F771F881F91505040A9F74F
:1016D0009E3F510580F00C943D090C9498095F3FA2
:1016E000E4F3983ED4F3869577956795B795F7958B
:1016F000E7959F5FC1F7FE2B880F911D9695879503
:1017000097F908959F3F31F0915020F48795779590
:101710006795B795880F911D9695879597F90895C8
:10172000689401C0E894F92FF12B12F00C94C40BCB
:10173000A0E0B0E0EEE9FBE00C94360C092E059435
:1017400022F40E94200C112392F4F0E80F26FFEF00
:10175000E094F09400951095B094C094D094A19426
:10176000BF0ACF0ADF0AEF0AFF0A0F0B1F0B0E9406
:10177000CF0B07FC0E94200CCDB7DEB7ECE00C9439
:10178000520C689401C0E8948F929F92CF93DF939C
:101790000E94CF0BDF91CF919F908F900895882466
:1017A0009924F401E401B0E49F93AA279A158B04CD
:1017B0009C04ED05FE05CF05D007A10798F4AD2FD9
:1017C000DC2FCF2FFE2FE92D982C892E982F872FD5
:1017D000762F652F542F432F322F2227B85031F701
:1017E000BF9127C01B2EBF91BB27220F331F441F61
:1017F000551F661F771F881F991F881C991CEE1F95
:10180000FF1FCC1FDD1FAA1FBB1F8A149B04EC0502
:10181000FD05CE05DF05A007B10748F08A189B0833
:10182000EC09FD09CE09DF09A00BB10B21601A9468
:10183000E1F62EF49401AF01BE01CD01000C089534
:10184000609570958095909530954095509521952F
:101850003F4F4F4F5F4F6F4F7F4F8F4F9F4F0895B9
:101860002F923F924F925F926F927F928F929F92B0
:10187000AF92BF92CF92DF92EF92FF920F931F939E
:10188000CF93DF93CDB7DEB7CA1BDB0B0FB6F8944F
:10189000DEBF0FBECDBF09942A88398848885F848F
:1018A0006E847D848C849B84AA84B984C884DF8000
:1018B000EE80FD800C811B81AA81B981CE0FD11DE4
:1018C0000FB6F894DEBF0FBECDBFED010895002422
:1018D000A7FD00942A1730054005500560057005E6
:0A18E000800590050895F894FFCFED
:1018EA00020000000D10330003080A000002010183
:0418FA0000000001E9
:00000001FF
