S01700004D6561737572656D656E745F4543552E737265634B
S11300000C946B000C944C010C9488000C948800A4
S11300100C94E0050C9488000C9488000C949205D0
S11300200C94B9050C9488000C946B050C9488000E
S11300300C9488000C9490030C9488000C94CA03CC
S11300400C9488000C9488000C9488000C9488000C
S11300500C94880007634236B79BD8A71A396856B0
S113006018AEBAAB558C1D3CB7CC5763BD6DEDFDD6
S1130070753EF6177231BF000000803F0800000093
S1130080BE922449123EABAAAA2ABECDCCCC4C3E89
S113009000000080BEABAAAAAA3E00000000BF0078
S11300A00000803F0000000000084178D3BB438774
S11300B0D1133D190E3CC3BD4282AD2B3E68EC8288
S11300C076BED98FE1A93E4C80EFFFBE01C4FF7F0D
S11300D03F000000000011241FBECFE5D8E0DEBFC2
S11300E0CDBF10E0A0E6B0E0EEE7F8E102C0059075
S11300F00D92A637B107D9F721E0A6E7B0E001C019
S11301001D92A030B207E1F70E94E4010C943D0C6B
S11301100C940000CF92DF92EF92FF92CF93DF9383
S113012000D000D0CDB7DEB780917F0090918000E1
S1130130A0918100B091820089839A83AB83BC83B0
S113014020E030E040E85FE3BC01CD010E9481077C
S1130150462F572F682F792F40937F0050938000AC
S1130160609381007093820080916000909161009F
S1130170A0916200B091630089839A83AB83BC83AE
S1130180C0907700D0907800E0907900F0907A00E9
S113019020E030E04AE754E4BC01CD010E94ED07C1
S11301A0A701960169837A838B839C8369817A8111
S11301B08B819C810E948107462F572F682F792FAE
S11301C040937700509378006093790070937A009D
S11301D080917F0090918000A0918100B091820075
S11301E089839A83AB83BC8320E030E04AE754E4FC
S11301F0BC01CD010E94ED07462F572F682F792FA0
S113020040937B0050937C0060937D0070937E004C
S11302100F900F900F900F90DF91CF91FF90EF9080
S1130220DF90CF900895CF93DF93CDB7DEB72C97AF
S11302300FB6F894DEBF0FBECDBF9B01AC0160E0EA
S113024070E0CB012D833E834F83588769877A877B
S11302508B879C8760E070E080E090E00E94B806A5
S113026089839A83A981BA818C91882361F011963C
S1130270BA83A9830E947004E981FA818191FA8387
S1130280E9838111F7CF2C960FB6F894DEBF0FBE29
S1130290CDBFDF91CF9108951F920F920FB60F92A9
S11302A011242F933F934F935F936F937F938F9377
S11302B09F93AF93BF93EF93FF93CF93DF9300D0BC
S11302C000D0CDB7DEB786E50E9470048DE30E94AE
S11302D070048091600090916100A0916200B091DF
S11302E0630089839A83AB83BC83BC01CD010E94E4
S11302F09B080E94130180E20E9470048CE20E9419
S1130300700484E40E9470048DE30E947004809160
S1130310770090917800A0917900B0917A00898358
S11303209A83AB83BC83BC01CD010E949B080E94CD
S1130330130180E20E9470048CE20E94700484E540
S11303400E9470048DE30E94700480917B00909160
S11303507C00A0917D00B0917E0089839A83AB8359
S1130360BC83BC01CD010E949B080E9413018EE254
S11303700E9470048DE00E94700410927700109225
S113038078001092790010927A0010927F001092F7
S1130390800010928100109282000F900F900F90B5
S11303A00F90DF91CF91FF91EF91BF91AF919F910A
S11303B08F917F916F915F914F913F912F910F900A
S11303C00FBE0F901F90189500D000D0CDB7DEB7A8
S11303D080E790E00E9407068CE690E00E9490047B
S11303E04AE850E070E060E080E00E94DE0485E6C8
S11303F090E00E94010470E060E08AE190E00E94D5
S1130400260285B7826085BF8BB780648BBF86E781
S113041090E00E94980680917600282F30E050E00A
S113042040E029833A834B835C83CA01B9010E946B
S1130430CA08462F572F682F792F40936000509396
S113044061006093620070936300E1CF803208F032
S11304508BC0282F26952695269591E4920F8770B8
S1130460223009F445C0943408F060C09134A9F0F6
S1130470923489F461112FC047B321E030E0F901CF
S113048002C0EE0FFF1F8A95E2F7CF018095842307
S113049087BB862F089581E0089561110FC04AB388
S11304A021E030E0F90102C0EE0FFF1F8A95E2F768
S11304B0CF01809584238ABB862F08959AB321E0C7
S11304C030E002C0220F331F8A95E2F7892F822B76
S11304D08ABB80E0089597B321E030E002C0220F88
S11304E0331F8A95E2F7892F822B87BB80E008951A
S11304F061110FC044B321E030E0F90102C0EE0FF6
S1130500FF1F8A95E2F7CF018095842384BB862F51
S1130510089594B321E030E002C0220F331F8A957E
S1130520E2F7892F822B84BB80E0089561110FC00C
S113053041B321E030E0B90102C0660F771F8A950C
S1130540E2F7CB018095842381BB81E0089591B3C8
S113055021E030E002C0220F331F8A95E2F7892F91
S1130560822B81BB81E0089581E00895803208F0F8
S11305708BC0282F26952695269591E4920F877097
S1130580223009F445C0943408F060C09134A9F0D5
S1130590923489F461112FC048B321E030E0F901AD
S11305A002C0EE0FFF1F8A95E2F7CF0180958423E6
S11305B088BB862F089581E0089561110FC04BB365
S11305C021E030E0F90102C0EE0FFF1F8A95E2F747
S11305D0CF01809584238BBB862F08959BB321E0A4
S11305E030E002C0220F331F8A95E2F7892F822B55
S11305F08BBB80E0089598B321E030E002C0220F65
S1130600331F8A95E2F7892F822B88BB80E00895F7
S113061061110FC045B321E030E0F90102C0EE0FD3
S1130620FF1F8A95E2F7CF018095842385BB862F2F
S1130630089595B321E030E002C0220F331F8A955C
S1130640E2F7892F822B85BB80E0089561110FC0EA
S113065042B321E030E0F90102C0EE0FFF1F8A959A
S1130660E2F7CF018095842382BB862F089592B34D
S113067021E030E002C0220F331F8A95E2F7892F70
S1130680822B82BB80E0089581E00895803208F0D7
S113069045C0282F26952695269591E4920F8770BC
S11306A0223011F1943468F5913489F0923469F46C
S11306B098B321E030E002C0220F331F8A95E2F79D
S11306C0892F822788BB80E0089581E008959BB339
S11306D021E030E002C0220F331F8A95E2F7892F10
S11306E082278BBB80E0089595B321E030E002C0FF
S11306F0220F331F8A95E2F7892F822785BB80E07A
S1130700089592B321E030E002C0220F331F8A958E
S1130710E2F7892F822782BB80E0089581E0089563
S11307201F920F920FB60F9211242F933F934F9362
S11307305F936F937F938F939F93AF93BF93EF9345
S1130740FF938091860090918700892BB1F0E0910E
S11307508600F09187000995FF91EF91BF91AF91C9
S11307609F918F917F916F915F914F913F912F91C5
S11307700F900FBE0F901F90189561E070E088E015
S113078090E00E94260261E070E088E090E00E9420
S1130790B602E2CF1F920F920FB60F9211242F933D
S11307A03F934F935F936F937F938F939F93AF93F5
S11307B0BF93EF93FF938091880090918900892BD8
S11307C079F061E070E089E090E00E94260289E01F
S11307D090E00E944603E0918800F0918900099519
S11307E0FF91EF91BF91AF919F918F917F916F9105
S11307F05F914F913F912F910F900FBE0F901F90DB
S11308001895E82FF92F309709F468C010BC82813D
S113081089B980818D3011F18FE0809383008181CB
S11308208E3001F180E180938400838181111EC0A8
S113083080B580BD8381843029F1833039F185818D
S1130840853039F1863071F1873081F1883091F14A
S1130850893009F580B5866080BD1DC08093830012
S1130860539ADDCF80938400549ADFCF813031F0E6
S1130870823001F780B5806380BDDCCF80B58062B3
S113088080BDD8CF80B5886080BDD9CF80B580BD0C
S1130890D6CF80B580BD86818A3081F08BE080938D
S11308A08500089580B5826080BDF5CF80B58460F1
S11308B080BDF1CF80B5866080BDEDCF809385008B
S11308C08FB780688FBF81818E3021F080818D3019
S11308D019F00895579AFACF569A08958CE008951E
S11308E0CF93C82F809183008D3011F0CF9108955C
S11308F061E070E083E090E00E94260261E070E035
S113090083E090E00E94B602809185008B3021F054
S11309108A3061F7CCB9EACF5D9BFECFCCB9E6CF84
S1130920E82FF92F309709F43FC09081292F30E048
S1130930D901AE56BF4F8C918130F1F09330B0F5B0
S113094082818330A8F543814230A0F5518158302B
S113095098F5D901AE56BF4F61E06C93D901AB56FF
S1130960BF4F8C9328563F4FD9014C93813029F0C7
S113097083818130A1F080E00895913041F092307C
S113098051F09111F9CF83B7582B53BFF1CF8EB5E6
S1130990582B5EBDEDCF85B5582B55BDE9CF8FB72C
S11309A080688FBF80E0089580E0089581E0089515
S11309B081E0089581E0089581E00895982F262F1D
S11309C0372F642F752F811184C083B7886083BF4C
S11309D040919500413009F45FC041112DC083B7A7
S11309E0826083BF80919800811114C02115310564
S11309F009F461C050E040E061E098B7926098BFAC
S1130A006CBF08B601FEFDCF4F5F5F4F241735075B
S1130A10A1F70895813011F0842F089588B782607A
S1130A2088BF81E08CBF89B7826089BF70939100D1
S1130A3060939000842F0895423011F0892F089517
S1130A4083B7836083BF80919800811113C02115FF
S1130A50310589F150E040E06DE798B7926098BFA6
S1130A606CBF08B601FEFDCF4F5F5F4F24173507FB
S1130A70A1F70895813011F0892F089588B7826015
S1130A8088BF8DE78CBF89B7826089BF709391005E
S1130A9060939000892F089580919800811108C077
S1130AA098B7926098BF2CBF08B601FEFDCF089599
S1130AB0813011F0892F089588B7826088BF2CBFD8
S1130AC089B7826089BF7093910060939000892FE9
S1130AD0089581E008951F920F920FB60F9211248A
S1130AE02F933F934F935F936F937F938F939F9332
S1130AF0AF93BF93EF93FF93E0919000F091910037
S1130B000995FF91EF91BF91AF919F918F917F9143
S1130B106F915F914F913F912F910F900FBE0F9066
S1130B201F9018951F920F920FB60F9211242F93B6
S1130B303F934F935F936F937F938F939F93AF9361
S1130B40BF93EF93FF93E0918E00F0918F0009958E
S1130B50FF91EF91BF91AF919F918F917F916F9191
S1130B605F914F913F912F910F900FBE0F901F9067
S1130B7018951F920F920FB60F9211242F933F9343
S1130B804F935F936F937F938F939F93AF93BF9391
S1130B90EF93FF93E0918C00F0918D000995FF9104
S1130BA0EF91BF91AF919F918F917F916F915F91E1
S1130BB04F913F912F910F900FBE0F901F9018955A
S1130BC01F920F920FB60F9211242F933F934F93BE
S1130BD05F936F937F938F939F93AF93BF93EF93A1
S1130BE0FF93E0918A00F0918B000995FF91EF91BA
S1130BF0BF91AF919F918F917F916F915F914F9131
S1130C003F912F910F900FBE0F901F901895CF9387
S1130C10DF93C82FD92F61E070E08CE090E00E9450
S1130C20260261E070E08DE090E00E94260270E010
S1130C3060E08EE090E00E94260261E070E08FE0C8
S1130C4090E00E9426029881992331F081E091304E
S1130C5069F1DF91CF9108956C9A8981813071F0A7
S1130C608C81811115C06D988B818130A9F08A81A6
S1130C70811114C010929B006E9AEBCF8DB1837FCB
S1130C808DB98DB12981822B8DB96A986B98E8CF83
S1130C90813051F76D9AE8CF709AE9CF813011F025
S1130CA084E0EACF80939B00892FE6CF70E060E078
S1130CB08CE090E00E94260270E060E08DE090E01D
S1130CC00E94260261E070E08EE090E00E9426021D
S1130CD070E060E08FE090E00E9426026C988C81C6
S1130CE0811111C06D986E9A8A81882321F0813018
S1130CF031F084E0AECF10929B0086E0AACF8093BF
S1130D009B0086E0A6CF813011F083E0A2CF6D9ADC
S1130D106E9A8A81882321F0813031F084E099CF62
S1130D2010929B0086E095CF80939B0086E091CF44
S1130D30E82FF92F80919B0081110EC080916400EF
S1130D40813011F081E008958FB780688FBF6F9A6A
S1130D508FB180831092640080919B00813031F4C4
S1130D608FB18083779BFECF80E0089581E0089562
S1130D702F923F924F925F926F927F928F929F92A7
S1130D80AF92BF92CF92DF92EF92FF920F931F9395
S1130D90CF93DF93CDB7DEB728970FB6F894DEBFB5
S1130DA00FBECDBF2D8338874E835F83562E472ECB
S1130DB0382E292E612C862C6394882D90E0B0E087
S1130DC0A0E089839A83AB83BC83BC01CD010E94DC
S1130DD0CA08262F372F482F592F60E070E080E291
S1130DE091E40E94680969837A838B839C83698177
S1130DF07A818B819C810E945F08A22EB32EC42E1F
S1130E00D52EE62EF72E082F192F2D8138854E81E9
S1130E105F81652D742D832D922D0E945C0BA0E0C3
S1130E200E94310C41F62D8138854E815F81652DFC
S1130E30742D832D922D0E94310C09F45FC0198208
S1130E40A82DA150BB0B4D01C401B9818B1B910985
S1130E50FC01E456FF4F3F010F2EFAE0AF2EF02DB8
S1130E60B12CC12CD12CE12CF12C00E010E02D810F
S1130E7038854E815F81652D742D832D922D0E94BE
S1130E805A0B205DD3012C932D8138854E815F81CF
S1130E90652D742D832D922D0E945C0B2D83388734
S1130EA04E835F83562E472E382E292EB981BF5F7D
S1130EB0B983A0E00E94310C39F62981E22FF0E0D9
S1130EC0E456FF4F10828CE990E028960FB6F89410
S1130ED0DEBF0FBECDBFDF91CF911F910F91FF9069
S1130EE0EF90DF90CF90BF90AF909F908F907F90C6
S1130EF06F905F904F903F902F9008951982DDCFAF
S1130F005058BB27AA270E9498070C942E090E94C8
S1130F10200938F00E94270920F039F49F3F19F482
S1130F2026F40C940D090EF4E095E7FB0C940709E4
S1130F30E92F0E943F0958F3BA1762077307840721
S1130F40950720F079F4A6F50C9461090EF4E09568
S1130F500B2EBA2FA02D0B01B90190010C01CA016F
S1130F60A0011124FF27591B99F0593F50F4503E1A
S1130F7068F11A16F040A22F232F342F4427585F0C
S1130F80F3CF469537952795A795F0405395C9F724
S1130F907EF41F16BA0B620B730B840BBAF09150DC
S1130FA0A1F0FF0FBB1F661F771F881FC2F70EC07B
S1130FB0BA0F621F731F841F48F48795779567954E
S1130FC0B795F7959E3F08F0B0CF9395880F08F03A
S1130FD09927EE0F9795879508950E9401080C9420
S1130FE02E090E94270958F00E94200940F029F494
S1130FF05F3F29F00C94070951110C9462090C9479
S11310000D090E943F0968F39923B1F3552391F325
S1131010951B550BBB27AA2762177307840738F063
S11310209F5F5F4F220F331F441FAA1FA9F335D0C0
S11310300E2E3AF0E0E832D091505040E695001C74
S1131040CAF72BD0FE2F29D0660F771F881FBB1F2E
S1131050261737074807AB07B0E809F0BB0B802D0C
S1131060BF01FF2793585F4F3AF09E3F510578F038
S11310700C9407090C9462095F3FE4F3983ED4F39F
S1131080869577956795B795F7959F5FC9F7880F0C
S1131090911D9695879597F90895E1E0660F771F5E
S11310A0881FBB1F621773078407BA0720F0621BEF
S11310B0730B840BBA0BEE1F88F7E0950895BEE31B
S11310C004D008F490E80895BFE322273327A90148
S11310D00E94470960F19F5748F1B91740F1BFE3F7
S11310E0B91B9927B8503AF4660F771F881F991FC8
S11310F0B395D2F316C0B8504AF0232F342F452F9E
S1131100562F672F782F8827B850BAF7B85F49F061
S11311108695779567955795479537952795BA9509
S1131120B9F716F40E94100988940895889460E031
S113113070E0CB0108950E94470988F09F5798F00A
S1131140B92F9927B751B0F0E1F0660F771F881FC8
S1131150991F1AF0BA95C9F714C0B13091F00E94E2
S11311606109B1E008950C946109672F782F8827ED
S1131170B85F39F0B93FCCF3869577956795B39509
S1131180D9F73EF490958095709561957F4F8F4F78
S11311909F4F0895E89409C097FB3EF4909580957D
S11311A0709561957F4F8F4F9F4F9923A9F0F92F29
S11311B096E9BB279395F695879577956795B795A7
S11311C0F111F8CFFAF4BB0F11F460FF1BC06F5F8D
S11311D07F4F8F4F9F4F16C0882311F096E911C09F
S11311E0772321F09EE8872F762F05C0662371F0C0
S11311F096E8862F70E060E02AF09A95660F771FD4
S1131200881FDAF7880F9695879597F9089597F9C7
S11312109F6780E870E060E008959FEF80EC089598
S11312209095809570956095509540953095219551
S11312303F4F4F4F5F4F6F4F7F4F8F4F9F4F0895DB
S113124000240A94161617061806090608950024A1
S11312500A9412161306140605060895092E03941B
S1131260000C11F4882352F0BB0F40F4BF2B11F48F
S113127060FF04C06F5F7F4F8F4F9F4F089557FDEE
S11312809058440F551F59F05F3F71F04795880FF0
S113129097FB991F61F09F3F79F087950895121687
S11312A013061406551FF2CF4695F1DF08C0161633
S11312B017061806991FF1CF8695710561050894E4
S11312C00895E894BB2766277727CB0197F90895FB
S11312D0FA01EE0FFF1F309621053105A1F16115CA
S11312E0710561F48038BFE39B0749F16894903835
S11312F0810561F08038BFEF9B0741F099234AF5DF
S1131300FF3FE1053105210519F1E8940894E795BB
S1131310D901AA2329F4AB2FBE2FF85FD0F310C054
S1131320FF5F70F4A695E0F7F73950F019F0FF3A33
S113133038F49F779F930DD00F9007FC9058089531
S113134046F00C940D0960E070E080E89FE3089596
S11313504FE79F775F934F933F932F930E94630AC6
S11313602F913F914F915F910E94DF0A0C94C00925
S113137029F416F00C9407090C9461090C940D09D6
S11313800E944709A8F39638A0F707F80F92E8944B
S11313902BE33AEA48EB5FE70E94F50A0F920F92BB
S11313A00F924DB75EB70F920E94AB0AE4E5F0E0EE
S11313B00E94F2094F915F91EF91FF91E595EE1F25
S11313C0FF1F49F0FE57E0684427EE0F441FFA95CB
S11313D0E1F74195550B0E94250A0F9007FE0C94E6
S11313E0190A0895DF93CF931F930F93FF92EF92FF
S11313F0DF927B018C01689406C0DA2EEF010E9413
S1131400F20AFE01E894A5912591359145915591F3
S1131410A6F3EF010E949807FE019701A801DA9450
S113142069F7DF90EF90FF900F911F91CF91DF91BB
S113143008959B01AC0160E070E080E89FE30C94A8
S1131440ED070C9407090C944C0B0E944709D8F340
S11314509923C9F3940F511DA3F39150504094F074
S113146059F0882332F0660F771F881F915050403F
S1131470C1F79E3F51052CF7880F911D96958795CE
S113148097F908955F3FACF0983E9CF0BB27869592
S113149077956795B79508F4B1609395C1F7BB0F3D
S11314A058F711F460FFE8CF6F5F7F4F8F4F9F4F66
S11314B0E3CF0C94620916F00C944C0B0C940D09B8
S11314C068940C9407090E944709A8F39923C1F36F
S11314D0AEF3DF93CF931F930F93FF92C92FDD27B2
S11314E088232AF02197660F771F881FDAF720E0F8
S11314F030E040E85FEB9FE3883920F0803E38F02D
S113150021968F770E948107ECE7F0E004C00E94E7
S11315108107E9EAF0E00E94F2098B01BE01EC01C7
S1131520FB2E6F5771097595771F880B990B0E94D5
S1131530CC0828E132E741E35FE30E94F20AAF2DD1
S11315409801AE01FF900F911F91CF91DF910E94FE
S113155098070C942E09FA01DC01AA0FBB1F9B010A
S1131560AC01BF5728F4222733274427507820C0E2
S1131570B75190F4AB2F0024469537952795011C5D
S1131580A395D2F3002071F0220F331F441FB395AB
S1131590DAF30ED00C94800761307105A0E88A0755
S11315A0B94630F49B01AC016627772788279078E9
S11315B0309621F0208331834283538308950E941F
S11315C0F20A0C942E090E94200938F00E9427097F
S11315D020F0952311F00C9407090C940D091124A3
S11315E00C9462090E943F0970F3959FC1F3950F13
S11315F050E0551F629FF001729FBB27F00DB11D93
S1131600639FAA27F00DB11DAA1F649F6627B00D22
S1131610A11D661F829F2227B00DA11D621F739F0B
S1131620B00DA11D621F839FA00D611D221F749F19
S11316303327A00D611D231F849F600D211D822F60
S1131640762F6A2F11249F5750409AF0F1F0882387
S11316504AF0EE0FFF1FBB1F661F771F881F9150B4
S11316605040A9F79E3F510580F00C9407090C9453
S113167062095F3FE4F3983ED4F3869577956795C6
S1131680B795F795E7959F5FC1F7FE2B880F911DDE
S11316909695879597F908959F3F31F0915020F4DE
S11316A0879577956795B795880F911D969587953A
S11316B097F90895689401C0E894F92FF12B12F07A
S11316C00C948E0BA0E0B0E0E8E6FBE00C94000C78
S11316D0092E059422F40E94EA0B112392F4F0E8F7
S11316E00F26FFEFE094F09400951095B094C09409
S11316F0D094A194BF0ACF0ADF0AEF0AFF0A0F0BA6
S11317001F0B0E94990B07FC0E94EA0BCDB7DEB7B2
S1131710ECE00C941C0C689401C0E8948F929F92A6
S1131720CF93DF930E94990BDF91CF919F908F907D
S1131730089588249924F401E401B0E49F93AA272E
S11317409A158B049C04ED05FE05CF05D007A1076F
S113175098F4AD2FDC2FCF2FFE2FE92D982C892E56
S1131760982F872F762F652F542F432F322F222720
S1131770B85031F7BF9127C01B2EBF91BB27220F52
S1131780331F441F551F661F771F881F991F881C0E
S1131790991CEE1FFF1FCC1FDD1FAA1FBB1F8A143D
S11317A09B04EC05FD05CE05DF05A007B10748F055
S11317B08A189B08EC09FD09CE09DF09A00BB10BBF
S11317C021601A94E1F62EF49401AF01BE01CD011B
S11317D0000C08956095709580959095309540958E
S11317E0509521953F4F4F4F5F4F6F4F7F4F8F4F16
S11317F09F4F08952F923F924F925F926F927F92E4
S11318008F929F92AF92BF92CF92DF92EF92FF920C
S11318100F931F93CF93DF93CDB7DEB7CA1BDB0BB8
S11318200FB6F894DEBF0FBECDBF09942A8839885D
S113183048885F846E847D848C849B84AA84B98464
S1131840C884DF80EE80FD800C811B81AA81B98170
S1131850CE0FD11D0FB6F894DEBF0FBECDBFED0184
S113186008950024A7FD00942A173005400550056B
S111187060057005800590050895F894FFCF7B
S113187E00000040010D10330003080B00000201AC
S109188E0100010001004D
S9030000FC
